{
  "transactions": [
    {
      "hash": "0x7953a86cec4519a75f64c7b7d75abf4721ab9f35d053b9462d570b9922dd412c",
      "transactionType": "CALL",
      "contractName": null,
      "contractAddress": "0x6edce65403992e310a62460808c4b910d972f10f",
      "function": "setConfig(address,address,(uint32,uint32,bytes)[])",
      "arguments": [
        "0xB6F686949b9510233d00490181cfa0919acd73f1",
        "0xC1868e054425D378095A003EcbA3823a5D0135C9",
        "[(40267, 1, 0x00000000000000000000000000000000000000000000000000000000000027100000000000000000000000008a3d588d9f6ac041476b094f97ff94ec30169d3d), (40267, 2, 0x0000000000000000000000000000000000000000000000000000000000000020000000000000000000000000000000000000000000000000000000000000000f000000000000000000000000000000000000000000000000000000000000000200000000000000000000000000000000000000000000000000000000000000ff000000000000000000000000000000000000000000000000000000000000000000000000000000000000000000000000000000000000000000000000000000c000000000000000000000000000000000000000000000000000000000000001200000000000000000000000000000000000000000000000000000000000000002000000000000000000000000df04abb599c7b37dd5ffc0f8e94f6898120874ef000000000000000000000000e1a12515f9ab2764b887bf60b923ca494ebbb2d60000000000000000000000000000000000000000000000000000000000000000)]"
      ],
      "transaction": {
        "from": "0xe7a38d4d4d1ebc4e441f76a70ad7ce7a5d78531c",
        "to": "0x6edce65403992e310a62460808c4b910d972f10f",
        "gas": "0x3b8df",
        "value": "0x0",
        "input": "0x6dbd9f90000000000000000000000000b6f686949b9510233d00490181cfa0919acd73f1000000000000000000000000c1868e054425d378095a003ecba3823a5d0135c900000000000000000000000000000000000000000000000000000000000000600000000000000000000000000000000000000000000000000000000000000002000000000000000000000000000000000000000000000000000000000000004000000000000000000000000000000000000000000000000000000000000001000000000000000000000000000000000000000000000000000000000000009d4b00000000000000000000000000000000000000000000000000000000000000010000000000000000000000000000000000000000000000000000000000000060000000000000000000000000000000000000000000000000000000000000004000000000000000000000000000000000000000000000000000000000000027100000000000000000000000008a3d588d9f6ac041476b094f97ff94ec30169d3d0000000000000000000000000000000000000000000000000000000000009d4b0000000000000000000000000000000000000000000000000000000000000002000000000000000000000000000000000000000000000000000000000000006000000000000000000000000000000000000000000000000000000000000001600000000000000000000000000000000000000000000000000000000000000020000000000000000000000000000000000000000000000000000000000000000f000000000000000000000000000000000000000000000000000000000000000200000000000000000000000000000000000000000000000000000000000000ff000000000000000000000000000000000000000000000000000000000000000000000000000000000000000000000000000000000000000000000000000000c000000000000000000000000000000000000000000000000000000000000001200000000000000000000000000000000000000000000000000000000000000002000000000000000000000000df04abb599c7b37dd5ffc0f8e94f6898120874ef000000000000000000000000e1a12515f9ab2764b887bf60b923ca494ebbb2d60000000000000000000000000000000000000000000000000000000000000000",
        "nonce": "0x4",
        "chainId": "0x14a34"
      },
      "additionalContracts": [],
      "isFixedGasLimit": false
    }
  ],
  "receipts": [
    {
      "status": "0x1",
      "cumulativeGasUsed": "0x47280f",
      "logs": [
        {
          "address": "0xc1868e054425d378095a003ecba3823a5d0135c9",
          "topics": [
            "0x779cb2dd9d2bb1be1737d05435d744facbfb84a2a4912e21379d39beddcdc805"
          ],
          "data": "0x000000000000000000000000b6f686949b9510233d00490181cfa0919acd73f10000000000000000000000000000000000000000000000000000000000009d4b00000000000000000000000000000000000000000000000000000000000027100000000000000000000000008a3d588d9f6ac041476b094f97ff94ec30169d3d",
          "blockHash": "0x53a1a7a182a929990150f4ff86854672931661264df2b36b7643e49519e4a344",
          "blockNumber": "0x1cd2b8f",
          "blockTimestamp": "0x68adb5fe",
          "transactionHash": "0x7953a86cec4519a75f64c7b7d75abf4721ab9f35d053b9462d570b9922dd412c",
          "transactionIndex": "0x13",
          "logIndex": "0xcd",
          "removed": false
        },
        {
          "address": "0xc1868e054425d378095a003ecba3823a5d0135c9",
          "topics": [
            "0x82118522aa536ac0e96cc5c689407ae42b89d592aa133890a01f1509842f5081"
          ],
          "data": "0x000000000000000000000000b6f686949b9510233d00490181cfa0919acd73f10000000000000000000000000000000000000000000000000000000000009d4b0000000000000000000000000000000000000000000000000000000000000060000000000000000000000000000000000000000000000000000000000000000f000000000000000000000000000000000000000000000000000000000000000200000000000000000000000000000000000000000000000000000000000000ff000000000000000000000000000000000000000000000000000000000000000000000000000000000000000000000000000000000000000000000000000000c000000000000000000000000000000000000000000000000000000000000001200000000000000000000000000000000000000000000000000000000000000002000000000000000000000000df04abb599c7b37dd5ffc0f8e94f6898120874ef000000000000000000000000e1a12515f9ab2764b887bf60b923ca494ebbb2d60000000000000000000000000000000000000000000000000000000000000000",
          "blockHash": "0x53a1a7a182a929990150f4ff86854672931661264df2b36b7643e49519e4a344",
          "blockNumber": "0x1cd2b8f",
          "blockTimestamp": "0x68adb5fe",
          "transactionHash": "0x7953a86cec4519a75f64c7b7d75abf4721ab9f35d053b9462d570b9922dd412c",
          "transactionIndex": "0x13",
          "logIndex": "0xce",
          "removed": false
        }
      ],
      "logsBloom": "0x00000000000000000000000000000000000000000000000000000000000000000000000000000200000000000000000000000000000000000000000000000000000000000000000000000040000000000000000000000000002000020000000000000000000000000000000000000000000000000000000000000000000000000000000000000000000000000000000000000000000000000000000000000000000000000000000000000002000000000000000000000000000000000000000280000000000000000000000000000000000000000000000000000000000000000008000000000000000000000000000000000000000000000000000000000010",
      "type": "0x2",
      "transactionHash": "0x7953a86cec4519a75f64c7b7d75abf4721ab9f35d053b9462d570b9922dd412c",
      "transactionIndex": "0x13",
      "blockHash": "0x53a1a7a182a929990150f4ff86854672931661264df2b36b7643e49519e4a344",
      "blockNumber": "0x1cd2b8f",
      "gasUsed": "0x28b8a",
      "effectiveGasPrice": "0x1461ee",
      "from": "0xe7a38d4d4d1ebc4e441f76a70ad7ce7a5d78531c",
      "to": "0x6edce65403992e310a62460808c4b910d972f10f",
      "contractAddress": null,
      "l1BaseFeeScalar": "0x44d",
      "l1BlobBaseFee": "0x1",
      "l1BlobBaseFeeScalar": "0xa118b",
      "l1Fee": "0xb88f8a04",
      "l1GasPrice": "0x2863eb3c",
      "l1GasUsed": "0x1036"
    }
  ],
  "libraries": [],
  "pending": [],
  "returns": {},
  "timestamp": 1756214784613,
  "chain": 84532,
  "commit": "f569da0"
}