{
  "transactions": [
    {
      "hash": "0xa8c1716b5b2b14fc0af1ee331b874832292d4c0ab216582161b9e184e205e67b",
      "transactionType": "CALL",
      "contractName": null,
      "contractAddress": "0xb6f686949b9510233d00490181cfa0919acd73f1",
      "function": "send((uint32,bytes32,uint256,uint256,bytes,bytes,bytes),(uint256,uint256),address)",
      "arguments": [
        "(40267, 0x00000000000000000000000094759b75e06302780ca0dacdcc6b912c5c803ef5, 1000000000000000000, 950000000000000000, 0x0003010011010000000000000000000000000000fde8, 0x, 0x)",
        "(48798046673581, 0)",
        "0x1804c8AB1F12E6bbf3894d4083f33e07309d1f38"
      ],
      "transaction": {
        "from": "0xe7a38d4d4d1ebc4e441f76a70ad7ce7a5d78531c",
        "to": "0xb6f686949b9510233d00490181cfa0919acd73f1",
        "gas": "0x6417d",
        "value": "0x2c61ae3cdaad",
        "input": "0xc7c7f5b3000000000000000000000000000000000000000000000000000000000000008000000000000000000000000000000000000000000000000000002c61ae3cdaad00000000000000000000000000000000000000000000000000000000000000000000000000000000000000001804c8ab1f12e6bbf3894d4083f33e07309d1f380000000000000000000000000000000000000000000000000000000000009d4b00000000000000000000000094759b75e06302780ca0dacdcc6b912c5c803ef50000000000000000000000000000000000000000000000000de0b6b3a76400000000000000000000000000000000000000000000000000000d2f13f7789f000000000000000000000000000000000000000000000000000000000000000000e00000000000000000000000000000000000000000000000000000000000000120000000000000000000000000000000000000000000000000000000000000014000000000000000000000000000000000000000000000000000000000000000160003010011010000000000000000000000000000fde80000000000000000000000000000000000000000000000000000000000000000000000000000000000000000000000000000000000000000000000000000000000000000000000000000",
        "nonce": "0x8",
        "chainId": "0x14a34"
      },
      "additionalContracts": [],
      "isFixedGasLimit": false
    }
  ],
  "receipts": [
    {
      "status": "0x1",
      "cumulativeGasUsed": "0xf3bb6",
      "logs": [
        {
          "address": "0xb6f686949b9510233d00490181cfa0919acd73f1",
          "topics": [
            "0xddf252ad1be2c89b69c2b068fc378daa952ba7f163c4a11628f55a4df523b3ef",
            "0x000000000000000000000000e7a38d4d4d1ebc4e441f76a70ad7ce7a5d78531c",
            "0x0000000000000000000000000000000000000000000000000000000000000000"
          ],
          "data": "0x0000000000000000000000000000000000000000000000000de0b6b3a7640000",
          "blockHash": "0x381314fcd0cc1809106b6ee401375c6f35e541ff29a985e62eb5e83e34229d53",
          "blockNumber": "0x1cd2bf8",
          "blockTimestamp": "0x68adb6d0",
          "transactionHash": "0xa8c1716b5b2b14fc0af1ee331b874832292d4c0ab216582161b9e184e205e67b",
          "transactionIndex": "0x2",
          "logIndex": "0x28",
          "removed": false
        },
        {
          "address": "0xc1868e054425d378095a003ecba3823a5d0135c9",
          "topics": [
            "0x61ed099e74a97a1d7f8bb0952a88ca8b7b8ebd00c126ea04671f92a81213318a"
          ],
          "data": "0x0000000000000000000000008a3d588d9f6ac041476b094f97ff94ec30169d3d000000000000000000000000000000000000000000000000000027def011ea76",
          "blockHash": "0x381314fcd0cc1809106b6ee401375c6f35e541ff29a985e62eb5e83e34229d53",
          "blockNumber": "0x1cd2bf8",
          "blockTimestamp": "0x68adb6d0",
          "transactionHash": "0xa8c1716b5b2b14fc0af1ee331b874832292d4c0ab216582161b9e184e205e67b",
          "transactionIndex": "0x2",
          "logIndex": "0x29",
          "removed": false
        },
        {
          "address": "0xc1868e054425d378095a003ecba3823a5d0135c9",
          "topics": [
            "0x07ea52d82345d6e838192107d8fd7123d9c2ec8e916cd0aad13fd2b60db24644"
          ],
          "data": "0x000000000000000000000000000000000000000000000000000000000000006000000000000000000000000000000000000000000000000000000000000000c000000000000000000000000000000000000000000000000000000000000000e00000000000000000000000000000000000000000000000000000000000000002000000000000000000000000df04abb599c7b37dd5ffc0f8e94f6898120874ef000000000000000000000000e1a12515f9ab2764b887bf60b923ca494ebbb2d600000000000000000000000000000000000000000000000000000000000000000000000000000000000000000000000000000000000000000000000000000002000000000000000000000000000000000000000000000000000002430809d9c80000000000000000000000000000000000000000000000000000023fb621166f",
          "blockHash": "0x381314fcd0cc1809106b6ee401375c6f35e541ff29a985e62eb5e83e34229d53",
          "blockNumber": "0x1cd2bf8",
          "blockTimestamp": "0x68adb6d0",
          "transactionHash": "0xa8c1716b5b2b14fc0af1ee331b874832292d4c0ab216582161b9e184e205e67b",
          "transactionIndex": "0x2",
          "logIndex": "0x2a",
          "removed": false
        },
        {
          "address": "0x6edce65403992e310a62460808c4b910d972f10f",
          "topics": [
            "0x1ab700d4ced0c005b164c0f789fd09fcbb0156d4c2041b8a3bfbcd961cd1567f"
          ],
          "data": "0x00000000000000000000000000000000000000000000000000000000000000600000000000000000000000000000000000000000000000000000000000000120000000000000000000000000c1868e054425d378095a003ecba3823a5d0135c9000000000000000000000000000000000000000000000000000000000000009901000000000000000100009d35000000000000000000000000b6f686949b9510233d00490181cfa0919acd73f100009d4b000000000000000000000000b6f686949b9510233d00490181cfa0919acd73f1714a15eaa4fae535d69b03c2a99d9c05a10628b74af511bea8927cf5bb8d3c3900000000000000000000000094759b75e06302780ca0dacdcc6b912c5c803ef500000000000f42400000000000000000000000000000000000000000000000000000000000000000000000000000160003010011010000000000000000000000000000fde800000000000000000000",
          "blockHash": "0x381314fcd0cc1809106b6ee401375c6f35e541ff29a985e62eb5e83e34229d53",
          "blockNumber": "0x1cd2bf8",
          "blockTimestamp": "0x68adb6d0",
          "transactionHash": "0xa8c1716b5b2b14fc0af1ee331b874832292d4c0ab216582161b9e184e205e67b",
          "transactionIndex": "0x2",
          "logIndex": "0x2b",
          "removed": false
        },
        {
          "address": "0xb6f686949b9510233d00490181cfa0919acd73f1",
          "topics": [
            "0x85496b760a4b7f8d66384b9df21b381f5d1b1e79f229a47aaf4c232edc2fe59a",
            "0x714a15eaa4fae535d69b03c2a99d9c05a10628b74af511bea8927cf5bb8d3c39",
            "0x000000000000000000000000e7a38d4d4d1ebc4e441f76a70ad7ce7a5d78531c"
          ],
          "data": "0x0000000000000000000000000000000000000000000000000000000000009d4b0000000000000000000000000000000000000000000000000de0b6b3a76400000000000000000000000000000000000000000000000000000de0b6b3a7640000",
          "blockHash": "0x381314fcd0cc1809106b6ee401375c6f35e541ff29a985e62eb5e83e34229d53",
          "blockNumber": "0x1cd2bf8",
          "blockTimestamp": "0x68adb6d0",
          "transactionHash": "0xa8c1716b5b2b14fc0af1ee331b874832292d4c0ab216582161b9e184e205e67b",
          "transactionIndex": "0x2",
          "logIndex": "0x2c",
          "removed": false
        }
      ],
      "logsBloom": "0x00000000000000000000000000000000000000000000004000800000000000000000000800004200204000000000000000000000000000000000000000000000000002000000000000000008000000000000000000400000000000020000000000000000020000008200000000000800100000000000000000000010000000000000000000000020000000080000040000000000000000000000100000000000000000008000000000100000000000000000000000400000000440000000000080000002000000000000000080000000000000000000000000000000000020000000040000000000000000000000002000000000008000000000000000000000",
      "type": "0x2",
      "transactionHash": "0xa8c1716b5b2b14fc0af1ee331b874832292d4c0ab216582161b9e184e205e67b",
      "transactionIndex": "0x2",
      "blockHash": "0x381314fcd0cc1809106b6ee401375c6f35e541ff29a985e62eb5e83e34229d53",
      "blockNumber": "0x1cd2bf8",
      "gasUsed": "0x44709",
      "effectiveGasPrice": "0x15507d",
      "from": "0xe7a38d4d4d1ebc4e441f76a70ad7ce7a5d78531c",
      "to": "0xb6f686949b9510233d00490181cfa0919acd73f1",
      "contractAddress": null,
      "l1BaseFeeScalar": "0x44d",
      "l1BlobBaseFee": "0x1",
      "l1BlobBaseFeeScalar": "0xa118b",
      "l1Fee": "0x8cee622e",
      "l1GasPrice": "0x29ee1ce2",
      "l1GasUsed": "0xbec"
    }
  ],
  "libraries": [],
  "pending": [],
  "returns": {},
  "timestamp": 1756214993559,
  "chain": 84532,
  "commit": "f569da0"
}