{
  "transactions": [
    {
      "hash": "0x6ab043c6292f3fe2ebcf43815945781213433562818b5bc95e01b8072d7e710c",
      "transactionType": "CALL",
      "contractName": null,
      "contractAddress": "0xb6f686949b9510233d00490181cfa0919acd73f1",
      "function": "send((uint32,bytes32,uint256,uint256,bytes,bytes,bytes),(uint256,uint256),address)",
      "arguments": [
        "(40245, 0x00000000000000000000000094759b75e06302780ca0dacdcc6b912c5c803ef5, 1000000000000000000, 950000000000000000, 0x0003010011010000000000000000000000000000fde8, 0x, 0x)",
        "(273140378633903764, 0)",
        "0x1804c8AB1F12E6bbf3894d4083f33e07309d1f38"
      ],
      "transaction": {
        "from": "0xe7a38d4d4d1ebc4e441f76a70ad7ce7a5d78531c",
        "to": "0xb6f686949b9510233d00490181cfa0919acd73f1",
        "gas": "0x5e3f6",
        "value": "0x3ca63ba2a4a1e94",
        "input": "0xc7c7f5b3000000000000000000000000000000000000000000000000000000000000008000000000000000000000000000000000000000000000000003ca63ba2a4a1e9400000000000000000000000000000000000000000000000000000000000000000000000000000000000000001804c8ab1f12e6bbf3894d4083f33e07309d1f380000000000000000000000000000000000000000000000000000000000009d3500000000000000000000000094759b75e06302780ca0dacdcc6b912c5c803ef50000000000000000000000000000000000000000000000000de0b6b3a76400000000000000000000000000000000000000000000000000000d2f13f7789f000000000000000000000000000000000000000000000000000000000000000000e00000000000000000000000000000000000000000000000000000000000000120000000000000000000000000000000000000000000000000000000000000014000000000000000000000000000000000000000000000000000000000000000160003010011010000000000000000000000000000fde80000000000000000000000000000000000000000000000000000000000000000000000000000000000000000000000000000000000000000000000000000000000000000000000000000",
        "nonce": "0x8",
        "chainId": "0x13882"
      },
      "additionalContracts": [],
      "isFixedGasLimit": false
    }
  ],
  "receipts": [
    {
      "status": "0x1",
      "cumulativeGasUsed": "0x443be",
      "logs": [
        {
          "address": "0x0000000000000000000000000000000000001010",
          "topics": [
            "0xe6497e3ee548a3372136af2fcb0696db31fc6cf20260707645068bd3fe97f3c4",
            "0x0000000000000000000000000000000000000000000000000000000000001010",
            "0x000000000000000000000000e7a38d4d4d1ebc4e441f76a70ad7ce7a5d78531c",
            "0x000000000000000000000000b6f686949b9510233d00490181cfa0919acd73f1"
          ],
          "data": "0x00000000000000000000000000000000000000000000000003ca63ba2a4a1e9400000000000000000000000000000000000000000000000009045c3d0a22492d00000000000000000000000000000000000000000000000000000000000000000000000000000000000000000000000000000000000000000539f882dfd82a9900000000000000000000000000000000000000000000000003ca63ba2a4a1e94",
          "blockHash": "0x1056b44447fc571629b7021d68503d750647bc4d24855467d071cdc8a3b344e5",
          "blockNumber": "0x1871995",
          "transactionHash": "0x6ab043c6292f3fe2ebcf43815945781213433562818b5bc95e01b8072d7e710c",
          "transactionIndex": "0x0",
          "logIndex": "0x0",
          "removed": false
        },
        {
          "address": "0xb6f686949b9510233d00490181cfa0919acd73f1",
          "topics": [
            "0xddf252ad1be2c89b69c2b068fc378daa952ba7f163c4a11628f55a4df523b3ef",
            "0x000000000000000000000000e7a38d4d4d1ebc4e441f76a70ad7ce7a5d78531c",
            "0x0000000000000000000000000000000000000000000000000000000000000000"
          ],
          "data": "0x0000000000000000000000000000000000000000000000000de0b6b3a7640000",
          "blockHash": "0x1056b44447fc571629b7021d68503d750647bc4d24855467d071cdc8a3b344e5",
          "blockNumber": "0x1871995",
          "transactionHash": "0x6ab043c6292f3fe2ebcf43815945781213433562818b5bc95e01b8072d7e710c",
          "transactionIndex": "0x0",
          "logIndex": "0x1",
          "removed": false
        },
        {
          "address": "0x0000000000000000000000000000000000001010",
          "topics": [
            "0xe6497e3ee548a3372136af2fcb0696db31fc6cf20260707645068bd3fe97f3c4",
            "0x0000000000000000000000000000000000000000000000000000000000001010",
            "0x000000000000000000000000b6f686949b9510233d00490181cfa0919acd73f1",
            "0x0000000000000000000000006edce65403992e310a62460808c4b910d972f10f"
          ],
          "data": "0x00000000000000000000000000000000000000000000000003ca63ba2a4a1e9400000000000000000000000000000000000000000000000003ca63ba2a4a1e940000000000000000000000000000000000000000000000000000000000000000000000000000000000000000000000000000000000000000000000000000000000000000000000000000000000000000000000000000000003ca63ba2a4a1e94",
          "blockHash": "0x1056b44447fc571629b7021d68503d750647bc4d24855467d071cdc8a3b344e5",
          "blockNumber": "0x1871995",
          "transactionHash": "0x6ab043c6292f3fe2ebcf43815945781213433562818b5bc95e01b8072d7e710c",
          "transactionIndex": "0x0",
          "logIndex": "0x2",
          "removed": false
        },
        {
          "address": "0x1d186c560281b8f1af831957ed5047fd3ab902f9",
          "topics": [
            "0x61ed099e74a97a1d7f8bb0952a88ca8b7b8ebd00c126ea04671f92a81213318a"
          ],
          "data": "0x0000000000000000000000004cf1b3fa61465c2c907f82fc488b43223ba0cf9300000000000000000000000000000000000000000000000001c7b11ab48e1d25",
          "blockHash": "0x1056b44447fc571629b7021d68503d750647bc4d24855467d071cdc8a3b344e5",
          "blockNumber": "0x1871995",
          "transactionHash": "0x6ab043c6292f3fe2ebcf43815945781213433562818b5bc95e01b8072d7e710c",
          "transactionIndex": "0x0",
          "logIndex": "0x3",
          "removed": false
        },
        {
          "address": "0x1d186c560281b8f1af831957ed5047fd3ab902f9",
          "topics": [
            "0x07ea52d82345d6e838192107d8fd7123d9c2ec8e916cd0aad13fd2b60db24644"
          ],
          "data": "0x000000000000000000000000000000000000000000000000000000000000006000000000000000000000000000000000000000000000000000000000000000c000000000000000000000000000000000000000000000000000000000000000e000000000000000000000000000000000000000000000000000000000000000020000000000000000000000003ed2211f49ce343d70cb8ded927ca6c4a619810100000000000000000000000055c175dd5b039331db251424538169d8495c18d10000000000000000000000000000000000000000000000000000000000000000000000000000000000000000000000000000000000000000000000000000000200000000000000000000000000000000000000000000000001040ac14d0e590800000000000000000000000000000000000000000000000000fea7de28ada867",
          "blockHash": "0x1056b44447fc571629b7021d68503d750647bc4d24855467d071cdc8a3b344e5",
          "blockNumber": "0x1871995",
          "transactionHash": "0x6ab043c6292f3fe2ebcf43815945781213433562818b5bc95e01b8072d7e710c",
          "transactionIndex": "0x0",
          "logIndex": "0x4",
          "removed": false
        },
        {
          "address": "0x6edce65403992e310a62460808c4b910d972f10f",
          "topics": [
            "0x1ab700d4ced0c005b164c0f789fd09fcbb0156d4c2041b8a3bfbcd961cd1567f"
          ],
          "data": "0x000000000000000000000000000000000000000000000000000000000000006000000000000000000000000000000000000000000000000000000000000001200000000000000000000000001d186c560281b8f1af831957ed5047fd3ab902f9000000000000000000000000000000000000000000000000000000000000009901000000000000000100009d4b000000000000000000000000b6f686949b9510233d00490181cfa0919acd73f100009d35000000000000000000000000b6f686949b9510233d00490181cfa0919acd73f1253c431a65a1c0a3556c56459646c60ab902b5752490f90bb87732869375b02200000000000000000000000094759b75e06302780ca0dacdcc6b912c5c803ef500000000000f42400000000000000000000000000000000000000000000000000000000000000000000000000000160003010011010000000000000000000000000000fde800000000000000000000",
          "blockHash": "0x1056b44447fc571629b7021d68503d750647bc4d24855467d071cdc8a3b344e5",
          "blockNumber": "0x1871995",
          "transactionHash": "0x6ab043c6292f3fe2ebcf43815945781213433562818b5bc95e01b8072d7e710c",
          "transactionIndex": "0x0",
          "logIndex": "0x5",
          "removed": false
        },
        {
          "address": "0x0000000000000000000000000000000000001010",
          "topics": [
            "0xe6497e3ee548a3372136af2fcb0696db31fc6cf20260707645068bd3fe97f3c4",
            "0x0000000000000000000000000000000000000000000000000000000000001010",
            "0x0000000000000000000000006edce65403992e310a62460808c4b910d972f10f",
            "0x0000000000000000000000001d186c560281b8f1af831957ed5047fd3ab902f9"
          ],
          "data": "0x00000000000000000000000000000000000000000000000003ca63ba2a4a1e9400000000000000000000000000000000000000000000000003ca63ba2a4a1e94000000000000000000000000000000000000000000000082bdb7c9e0cf5cc9c70000000000000000000000000000000000000000000000000000000000000000000000000000000000000000000000000000000000000082c1822d9af9a6e85b",
          "blockHash": "0x1056b44447fc571629b7021d68503d750647bc4d24855467d071cdc8a3b344e5",
          "blockNumber": "0x1871995",
          "transactionHash": "0x6ab043c6292f3fe2ebcf43815945781213433562818b5bc95e01b8072d7e710c",
          "transactionIndex": "0x0",
          "logIndex": "0x6",
          "removed": false
        },
        {
          "address": "0xb6f686949b9510233d00490181cfa0919acd73f1",
          "topics": [
            "0x85496b760a4b7f8d66384b9df21b381f5d1b1e79f229a47aaf4c232edc2fe59a",
            "0x253c431a65a1c0a3556c56459646c60ab902b5752490f90bb87732869375b022",
            "0x000000000000000000000000e7a38d4d4d1ebc4e441f76a70ad7ce7a5d78531c"
          ],
          "data": "0x0000000000000000000000000000000000000000000000000000000000009d350000000000000000000000000000000000000000000000000de0b6b3a76400000000000000000000000000000000000000000000000000000de0b6b3a7640000",
          "blockHash": "0x1056b44447fc571629b7021d68503d750647bc4d24855467d071cdc8a3b344e5",
          "blockNumber": "0x1871995",
          "transactionHash": "0x6ab043c6292f3fe2ebcf43815945781213433562818b5bc95e01b8072d7e710c",
          "transactionIndex": "0x0",
          "logIndex": "0x7",
          "removed": false
        },
        {
          "address": "0x0000000000000000000000000000000000001010",
          "topics": [
            "0x4dfe1bbbcf077ddc3e01291eea2d5c70c2b422b415d95645b9adcfd678cb1d63",
            "0x0000000000000000000000000000000000000000000000000000000000001010",
            "0x000000000000000000000000e7a38d4d4d1ebc4e441f76a70ad7ce7a5d78531c",
            "0x0000000000000000000000006ab3d36c46ecfb9b9c0bd51cb1c3da5a2c81cea6"
          ],
          "data": "0x000000000000000000000000000000000000000000000000002e776022895a9c00000000000000000000000000000000000000000000000009448aa3a1a6d6430000000000000000000000000000000000000000000008b261f72eacc5fd7e5f000000000000000000000000000000000000000000000000091613437f1d7ba70000000000000000000000000000000000000000000008b26225a60ce886d8fb",
          "blockHash": "0x1056b44447fc571629b7021d68503d750647bc4d24855467d071cdc8a3b344e5",
          "blockNumber": "0x1871995",
          "transactionHash": "0x6ab043c6292f3fe2ebcf43815945781213433562818b5bc95e01b8072d7e710c",
          "transactionIndex": "0x0",
          "logIndex": "0x8",
          "removed": false
        }
      ],
      "logsBloom": "0x00000000080000000000000000000000000000000000000000000000000000000000000800004000204000100000000000008000000000000000000000004000000002080000000000000008000000800000000000400000000100000000000000000000020000008200401000000800100000000000002080000010000000000000010000000020000000080000040000000000000000000000000000000000200000008000000000100020000000000002080000400000000440000000004000000002000000000001002080000000000000410008801200108000000020000000040000000000000000000000002008000000008000000000000040100000",
      "type": "0x2",
      "transactionHash": "0x6ab043c6292f3fe2ebcf43815945781213433562818b5bc95e01b8072d7e710c",
      "transactionIndex": "0x0",
      "blockHash": "0x1056b44447fc571629b7021d68503d750647bc4d24855467d071cdc8a3b344e5",
      "blockNumber": "0x1871995",
      "gasUsed": "0x443be",
      "effectiveGasPrice": "0xae55168b1",
      "from": "0xe7a38d4d4d1ebc4e441f76a70ad7ce7a5d78531c",
      "to": "0xb6f686949b9510233d00490181cfa0919acd73f1",
      "contractAddress": null
    }
  ],
  "libraries": [],
  "pending": [],
  "returns": {},
  "timestamp": 1756211697474,
  "chain": 80002,
  "commit": "849ec6c"
}