{
  "transactions": [
    {
      "hash": "0xc95a8037efe67223df8845a0aaad2238f6f776e30454f3c87f027cd7724095d2",
      "transactionType": "CALL",
      "contractName": null,
      "contractAddress": "0xb6f686949b9510233d00490181cfa0919acd73f1",
      "function": "setPeer(uint32,bytes32)",
      "arguments": [
        "40267",
        "0x000000000000000000000000b6f686949b9510233d00490181cfa0919acd73f1"
      ],
      "transaction": {
        "from": "0xe7a38d4d4d1ebc4e441f76a70ad7ce7a5d78531c",
        "to": "0xb6f686949b9510233d00490181cfa0919acd73f1",
        "gas": "0x113c9",
        "value": "0x0",
        "input": "0x3400288b0000000000000000000000000000000000000000000000000000000000009d4b000000000000000000000000b6f686949b9510233d00490181cfa0919acd73f1",
        "nonce": "0x6",
        "chainId": "0x13882"
      },
      "additionalContracts": [],
      "isFixedGasLimit": false
    },
    {
      "hash": "0xbdff6cbe102de63ad51b5b4989f530f41642d2c2c8e1ba90c1cc33fcf44b3172",
      "transactionType": "CALL",
      "contractName": null,
      "contractAddress": "0xb6f686949b9510233d00490181cfa0919acd73f1",
      "function": "setPeer(uint32,bytes32)",
      "arguments": [
        "40245",
        "0x000000000000000000000000b6f686949b9510233d00490181cfa0919acd73f1"
      ],
      "transaction": {
        "from": "0xe7a38d4d4d1ebc4e441f76a70ad7ce7a5d78531c",
        "to": "0xb6f686949b9510233d00490181cfa0919acd73f1",
        "gas": "0x113c9",
        "value": "0x0",
        "input": "0x3400288b0000000000000000000000000000000000000000000000000000000000009d35000000000000000000000000b6f686949b9510233d00490181cfa0919acd73f1",
        "nonce": "0x7",
        "chainId": "0x13882"
      },
      "additionalContracts": [],
      "isFixedGasLimit": false
    }
  ],
  "receipts": [
    {
      "status": "0x1",
      "cumulativeGasUsed": "0xbc93",
      "logs": [
        {
          "address": "0xb6f686949b9510233d00490181cfa0919acd73f1",
          "topics": [
            "0x238399d427b947898edb290f5ff0f9109849b1c3ba196a42e35f00c50a54b98b"
          ],
          "data": "0x0000000000000000000000000000000000000000000000000000000000009d4b000000000000000000000000b6f686949b9510233d00490181cfa0919acd73f1",
          "blockHash": "0x2510616e750a3de81427b801712f69404c4744352578992bb006a2a63198d894",
          "blockNumber": "0x18716cf",
          "transactionHash": "0xc95a8037efe67223df8845a0aaad2238f6f776e30454f3c87f027cd7724095d2",
          "transactionIndex": "0x0",
          "logIndex": "0x0",
          "removed": false
        },
        {
          "address": "0x0000000000000000000000000000000000001010",
          "topics": [
            "0x4dfe1bbbcf077ddc3e01291eea2d5c70c2b422b415d95645b9adcfd678cb1d63",
            "0x0000000000000000000000000000000000000000000000000000000000001010",
            "0x000000000000000000000000e7a38d4d4d1ebc4e441f76a70ad7ce7a5d78531c",
            "0x0000000000000000000000006dc2dd54f24979ec26212794c71afefed722280c"
          ],
          "data": "0x000000000000000000000000000000000000000000000000000747a39374659b000000000000000000000000000000000000000000000000095319eac8ec71d300000000000000000000000000000000000000000000093f28de7d9c6389eca6000000000000000000000000000000000000000000000000094bd24735780c3800000000000000000000000000000000000000000000093f28e5c53ff6fe5241",
          "blockHash": "0x2510616e750a3de81427b801712f69404c4744352578992bb006a2a63198d894",
          "blockNumber": "0x18716cf",
          "transactionHash": "0xc95a8037efe67223df8845a0aaad2238f6f776e30454f3c87f027cd7724095d2",
          "transactionIndex": "0x0",
          "logIndex": "0x1",
          "removed": false
        }
      ],
      "logsBloom": "0x00000000000000000000000000000000000000000000000000000000000000000000000800004000004000000000000000008000000000000800000000000000000000000000000000000000000000800000000000400000000100080000000000000000000000000000000000000000100000000000000080000000000000020000000000000000000000000040040000000000000000000000000000000000200000000000000000000000000000000000000000000000000002000000004000000000000000000001000000000000000000000000000000140000000000000000000000000000000000000000000000000000000000000000000000100000",
      "type": "0x2",
      "transactionHash": "0xc95a8037efe67223df8845a0aaad2238f6f776e30454f3c87f027cd7724095d2",
      "transactionIndex": "0x0",
      "blockHash": "0x2510616e750a3de81427b801712f69404c4744352578992bb006a2a63198d894",
      "blockNumber": "0x18716cf",
      "gasUsed": "0xbc93",
      "effectiveGasPrice": "0x9e1fe6018",
      "from": "0xe7a38d4d4d1ebc4e441f76a70ad7ce7a5d78531c",
      "to": "0xb6f686949b9510233d00490181cfa0919acd73f1",
      "contractAddress": null
    },
    {
      "status": "0x1",
      "cumulativeGasUsed": "0x17926",
      "logs": [
        {
          "address": "0xb6f686949b9510233d00490181cfa0919acd73f1",
          "topics": [
            "0x238399d427b947898edb290f5ff0f9109849b1c3ba196a42e35f00c50a54b98b"
          ],
          "data": "0x0000000000000000000000000000000000000000000000000000000000009d35000000000000000000000000b6f686949b9510233d00490181cfa0919acd73f1",
          "blockHash": "0x2510616e750a3de81427b801712f69404c4744352578992bb006a2a63198d894",
          "blockNumber": "0x18716cf",
          "transactionHash": "0xbdff6cbe102de63ad51b5b4989f530f41642d2c2c8e1ba90c1cc33fcf44b3172",
          "transactionIndex": "0x1",
          "logIndex": "0x2",
          "removed": false
        },
        {
          "address": "0x0000000000000000000000000000000000001010",
          "topics": [
            "0x4dfe1bbbcf077ddc3e01291eea2d5c70c2b422b415d95645b9adcfd678cb1d63",
            "0x0000000000000000000000000000000000000000000000000000000000001010",
            "0x000000000000000000000000e7a38d4d4d1ebc4e441f76a70ad7ce7a5d78531c",
            "0x0000000000000000000000006dc2dd54f24979ec26212794c71afefed722280c"
          ],
          "data": "0x000000000000000000000000000000000000000000000000000747a39374659b000000000000000000000000000000000000000000000000094bd2473549a40b00000000000000000000000000000000000000000000093f28e5c53ff6fe524100000000000000000000000000000000000000000000000009448aa3a1d53e7000000000000000000000000000000000000000000000093f28ed0ce38a72b7dc",
          "blockHash": "0x2510616e750a3de81427b801712f69404c4744352578992bb006a2a63198d894",
          "blockNumber": "0x18716cf",
          "transactionHash": "0xbdff6cbe102de63ad51b5b4989f530f41642d2c2c8e1ba90c1cc33fcf44b3172",
          "transactionIndex": "0x1",
          "logIndex": "0x3",
          "removed": false
        }
      ],
      "logsBloom": "0x00000000000000000000000000000000000000000000000000000000000000000000000800004000004000000000000000008000000000000800000000000000000000000000000000000000000000800000000000400000000100080000000000000000000000000000000000000000100000000000000080000000000000020000000000000000000000000040040000000000000000000000000000000000200000000000000000000000000000000000000000000000000002000000004000000000000000000001000000000000000000000000000000140000000000000000000000000000000000000000000000000000000000000000000000100000",
      "type": "0x2",
      "transactionHash": "0xbdff6cbe102de63ad51b5b4989f530f41642d2c2c8e1ba90c1cc33fcf44b3172",
      "transactionIndex": "0x1",
      "blockHash": "0x2510616e750a3de81427b801712f69404c4744352578992bb006a2a63198d894",
      "blockNumber": "0x18716cf",
      "gasUsed": "0xbc93",
      "effectiveGasPrice": "0x9e1fe6018",
      "from": "0xe7a38d4d4d1ebc4e441f76a70ad7ce7a5d78531c",
      "to": "0xb6f686949b9510233d00490181cfa0919acd73f1",
      "contractAddress": null
    }
  ],
  "libraries": [],
  "pending": [],
  "returns": {},
  "timestamp": 1756210059654,
  "chain": 80002,
  "commit": "849ec6c"
}