{
  "transactions": [
    {
      "hash": "0xa917c15ae1d1f63c15554ed1c3ef11e50e6a8c52e3d4353975b93a830dfe0dc0",
      "transactionType": "CALL",
      "contractName": null,
      "contractAddress": "0x6edce65403992e310a62460808c4b910d972f10f",
      "function": "setConfig(address,address,(uint32,uint32,bytes)[])",
      "arguments": [
        "0xB6F686949b9510233d00490181cfa0919acd73f1",
        "0x53fd4C4fBBd53F6bC58CaE6704b92dB1f360A648",
        "[(40245, 2, 0x0000000000000000000000000000000000000000000000000000000000000020000000000000000000000000000000000000000000000000000000000000000f000000000000000000000000000000000000000000000000000000000000000200000000000000000000000000000000000000000000000000000000000000ff000000000000000000000000000000000000000000000000000000000000000000000000000000000000000000000000000000000000000000000000000000c0000000000000000000000000000000000000000000000000000000000000012000000000000000000000000000000000000000000000000000000000000000020000000000000000000000003ed2211f49ce343d70cb8ded927ca6c4a619810100000000000000000000000055c175dd5b039331db251424538169d8495c18d10000000000000000000000000000000000000000000000000000000000000000)]"
      ],
      "transaction": {
        "from": "0xe7a38d4d4d1ebc4e441f76a70ad7ce7a5d78531c",
        "to": "0x6edce65403992e310a62460808c4b910d972f10f",
        "gas": "0x2ed47",
        "value": "0x0",
        "input": "0x6dbd9f90000000000000000000000000b6f686949b9510233d00490181cfa0919acd73f100000000000000000000000053fd4c4fbbd53f6bc58cae6704b92db1f360a6480000000000000000000000000000000000000000000000000000000000000060000000000000000000000000000000000000000000000000000000000000000100000000000000000000000000000000000000000000000000000000000000200000000000000000000000000000000000000000000000000000000000009d350000000000000000000000000000000000000000000000000000000000000002000000000000000000000000000000000000000000000000000000000000006000000000000000000000000000000000000000000000000000000000000001600000000000000000000000000000000000000000000000000000000000000020000000000000000000000000000000000000000000000000000000000000000f000000000000000000000000000000000000000000000000000000000000000200000000000000000000000000000000000000000000000000000000000000ff000000000000000000000000000000000000000000000000000000000000000000000000000000000000000000000000000000000000000000000000000000c0000000000000000000000000000000000000000000000000000000000000012000000000000000000000000000000000000000000000000000000000000000020000000000000000000000003ed2211f49ce343d70cb8ded927ca6c4a619810100000000000000000000000055c175dd5b039331db251424538169d8495c18d10000000000000000000000000000000000000000000000000000000000000000",
        "nonce": "0x5",
        "chainId": "0x13882"
      },
      "additionalContracts": [],
      "isFixedGasLimit": false
    }
  ],
  "receipts": [
    {
      "status": "0x1",
      "cumulativeGasUsed": "0x21e77",
      "logs": [
        {
          "address": "0x53fd4c4fbbd53f6bc58cae6704b92db1f360a648",
          "topics": [
            "0x82118522aa536ac0e96cc5c689407ae42b89d592aa133890a01f1509842f5081"
          ],
          "data": "0x000000000000000000000000b6f686949b9510233d00490181cfa0919acd73f10000000000000000000000000000000000000000000000000000000000009d350000000000000000000000000000000000000000000000000000000000000060000000000000000000000000000000000000000000000000000000000000000f000000000000000000000000000000000000000000000000000000000000000200000000000000000000000000000000000000000000000000000000000000ff000000000000000000000000000000000000000000000000000000000000000000000000000000000000000000000000000000000000000000000000000000c0000000000000000000000000000000000000000000000000000000000000012000000000000000000000000000000000000000000000000000000000000000020000000000000000000000003ed2211f49ce343d70cb8ded927ca6c4a619810100000000000000000000000055c175dd5b039331db251424538169d8495c18d10000000000000000000000000000000000000000000000000000000000000000",
          "blockHash": "0x21ef360432f56443ae7062ecf86e691df9dcdc1d19d4924c6b5b024544d36e27",
          "blockNumber": "0x18716aa",
          "transactionHash": "0xa917c15ae1d1f63c15554ed1c3ef11e50e6a8c52e3d4353975b93a830dfe0dc0",
          "transactionIndex": "0x0",
          "logIndex": "0x0",
          "removed": false
        },
        {
          "address": "0x0000000000000000000000000000000000001010",
          "topics": [
            "0x4dfe1bbbcf077ddc3e01291eea2d5c70c2b422b415d95645b9adcfd678cb1d63",
            "0x0000000000000000000000000000000000000000000000000000000000001010",
            "0x000000000000000000000000e7a38d4d4d1ebc4e441f76a70ad7ce7a5d78531c",
            "0x00000000000000000000000002f615e95563ef16f10354dba9e584e58d2d4314"
          ],
          "data": "0x0000000000000000000000000000000000000000000000000014f1109c2bfbdf00000000000000000000000000000000000000000000000009680afb659decfb0000000000000000000000000000000000000000000001cd37c7db648c7c6fb2000000000000000000000000000000000000000000000000095319eac971f11c0000000000000000000000000000000000000000000001cd37dccc7528a86b91",
          "blockHash": "0x21ef360432f56443ae7062ecf86e691df9dcdc1d19d4924c6b5b024544d36e27",
          "blockNumber": "0x18716aa",
          "transactionHash": "0xa917c15ae1d1f63c15554ed1c3ef11e50e6a8c52e3d4353975b93a830dfe0dc0",
          "transactionIndex": "0x0",
          "logIndex": "0x1",
          "removed": false
        }
      ],
      "logsBloom": "0x00000000000000000000000000000000000000000000000000000008000000000000000800004000024000004000000000008000000000000000000000000000000000000000000000000000000000800000000000000000082100000000000000000000000000000000000000000000000000000000000080000000000000000000000000000000000000000000000000000000000000000000000000000000200000000000000000000002000000000000000000000000000000000000004000000000000000000001000000000000000000000000100000100000000000000000000000000000000000000000000000000000000000000000000000108010",
      "type": "0x2",
      "transactionHash": "0xa917c15ae1d1f63c15554ed1c3ef11e50e6a8c52e3d4353975b93a830dfe0dc0",
      "transactionIndex": "0x0",
      "blockHash": "0x21ef360432f56443ae7062ecf86e691df9dcdc1d19d4924c6b5b024544d36e27",
      "blockNumber": "0x18716aa",
      "gasUsed": "0x21e77",
      "effectiveGasPrice": "0x9e1fe6018",
      "from": "0xe7a38d4d4d1ebc4e441f76a70ad7ce7a5d78531c",
      "to": "0x6edce65403992e310a62460808c4b910d972f10f",
      "contractAddress": null
    }
  ],
  "libraries": [],
  "pending": [],
  "returns": {},
  "timestamp": 1756209982489,
  "chain": 80002,
  "commit": "849ec6c"
}