{
  "transactions": [
    {
      "hash": "0x322fb1b35dd0fcb511745203146caca6fc5d8dbea3dd4f5925b8466986fff430",
      "transactionType": "CALL",
      "contractName": null,
      "contractAddress": "0x6edce65403992e310a62460808c4b910d972f10f",
      "function": "setConfig(address,address,(uint32,uint32,bytes)[])",
      "arguments": [
        "0xB6F686949b9510233d00490181cfa0919acd73f1",
        "0x1d186C560281B8F1AF831957ED5047fD3AB902F9",
        "[(40245, 1, 0x00000000000000000000000000000000000000000000000000000000000027100000000000000000000000004cf1b3fa61465c2c907f82fc488b43223ba0cf93), (40245, 2, 0x0000000000000000000000000000000000000000000000000000000000000020000000000000000000000000000000000000000000000000000000000000000f000000000000000000000000000000000000000000000000000000000000000200000000000000000000000000000000000000000000000000000000000000ff000000000000000000000000000000000000000000000000000000000000000000000000000000000000000000000000000000000000000000000000000000c0000000000000000000000000000000000000000000000000000000000000012000000000000000000000000000000000000000000000000000000000000000020000000000000000000000003ed2211f49ce343d70cb8ded927ca6c4a619810100000000000000000000000055c175dd5b039331db251424538169d8495c18d10000000000000000000000000000000000000000000000000000000000000000)]"
      ],
      "transaction": {
        "from": "0xe7a38d4d4d1ebc4e441f76a70ad7ce7a5d78531c",
        "to": "0x6edce65403992e310a62460808c4b910d972f10f",
        "gas": "0x38400",
        "value": "0x0",
        "input": "0x6dbd9f90000000000000000000000000b6f686949b9510233d00490181cfa0919acd73f10000000000000000000000001d186c560281b8f1af831957ed5047fd3ab902f900000000000000000000000000000000000000000000000000000000000000600000000000000000000000000000000000000000000000000000000000000002000000000000000000000000000000000000000000000000000000000000004000000000000000000000000000000000000000000000000000000000000001000000000000000000000000000000000000000000000000000000000000009d3500000000000000000000000000000000000000000000000000000000000000010000000000000000000000000000000000000000000000000000000000000060000000000000000000000000000000000000000000000000000000000000004000000000000000000000000000000000000000000000000000000000000027100000000000000000000000004cf1b3fa61465c2c907f82fc488b43223ba0cf930000000000000000000000000000000000000000000000000000000000009d350000000000000000000000000000000000000000000000000000000000000002000000000000000000000000000000000000000000000000000000000000006000000000000000000000000000000000000000000000000000000000000001600000000000000000000000000000000000000000000000000000000000000020000000000000000000000000000000000000000000000000000000000000000f000000000000000000000000000000000000000000000000000000000000000200000000000000000000000000000000000000000000000000000000000000ff000000000000000000000000000000000000000000000000000000000000000000000000000000000000000000000000000000000000000000000000000000c0000000000000000000000000000000000000000000000000000000000000012000000000000000000000000000000000000000000000000000000000000000020000000000000000000000003ed2211f49ce343d70cb8ded927ca6c4a619810100000000000000000000000055c175dd5b039331db251424538169d8495c18d10000000000000000000000000000000000000000000000000000000000000000",
        "nonce": "0x4",
        "chainId": "0x13882"
      },
      "additionalContracts": [],
      "isFixedGasLimit": false
    }
  ],
  "receipts": [
    {
      "status": "0x1",
      "cumulativeGasUsed": "0x6a00c",
      "logs": [
        {
          "address": "0x1d186c560281b8f1af831957ed5047fd3ab902f9",
          "topics": [
            "0x779cb2dd9d2bb1be1737d05435d744facbfb84a2a4912e21379d39beddcdc805"
          ],
          "data": "0x000000000000000000000000b6f686949b9510233d00490181cfa0919acd73f10000000000000000000000000000000000000000000000000000000000009d3500000000000000000000000000000000000000000000000000000000000027100000000000000000000000004cf1b3fa61465c2c907f82fc488b43223ba0cf93",
          "blockHash": "0x48e94bb6be9f60abe0fb3ce211d09fc04bdbb66f52d5a7d21b951d022f84de57",
          "blockNumber": "0x187160a",
          "transactionHash": "0x322fb1b35dd0fcb511745203146caca6fc5d8dbea3dd4f5925b8466986fff430",
          "transactionIndex": "0x2",
          "logIndex": "0x4",
          "removed": false
        },
        {
          "address": "0x1d186c560281b8f1af831957ed5047fd3ab902f9",
          "topics": [
            "0x82118522aa536ac0e96cc5c689407ae42b89d592aa133890a01f1509842f5081"
          ],
          "data": "0x000000000000000000000000b6f686949b9510233d00490181cfa0919acd73f10000000000000000000000000000000000000000000000000000000000009d350000000000000000000000000000000000000000000000000000000000000060000000000000000000000000000000000000000000000000000000000000000f000000000000000000000000000000000000000000000000000000000000000200000000000000000000000000000000000000000000000000000000000000ff000000000000000000000000000000000000000000000000000000000000000000000000000000000000000000000000000000000000000000000000000000c0000000000000000000000000000000000000000000000000000000000000012000000000000000000000000000000000000000000000000000000000000000020000000000000000000000003ed2211f49ce343d70cb8ded927ca6c4a619810100000000000000000000000055c175dd5b039331db251424538169d8495c18d10000000000000000000000000000000000000000000000000000000000000000",
          "blockHash": "0x48e94bb6be9f60abe0fb3ce211d09fc04bdbb66f52d5a7d21b951d022f84de57",
          "blockNumber": "0x187160a",
          "transactionHash": "0x322fb1b35dd0fcb511745203146caca6fc5d8dbea3dd4f5925b8466986fff430",
          "transactionIndex": "0x2",
          "logIndex": "0x5",
          "removed": false
        },
        {
          "address": "0x0000000000000000000000000000000000001010",
          "topics": [
            "0x4dfe1bbbcf077ddc3e01291eea2d5c70c2b422b415d95645b9adcfd678cb1d63",
            "0x0000000000000000000000000000000000000000000000000000000000001010",
            "0x000000000000000000000000e7a38d4d4d1ebc4e441f76a70ad7ce7a5d78531c",
            "0x00000000000000000000000009207a6efee346cb3e4a54ac18523e3715d38b3f"
          ],
          "data": "0x0000000000000000000000000000000000000000000000000019277c48c8fc2600000000000000000000000000000000000000000000000009813277af07430b0000000000000000000000000000000000000000000009a566e8c130a5ae415900000000000000000000000000000000000000000000000009680afb663e46e50000000000000000000000000000000000000000000009a56701e8acee773d7f",
          "blockHash": "0x48e94bb6be9f60abe0fb3ce211d09fc04bdbb66f52d5a7d21b951d022f84de57",
          "blockNumber": "0x187160a",
          "transactionHash": "0x322fb1b35dd0fcb511745203146caca6fc5d8dbea3dd4f5925b8466986fff430",
          "transactionIndex": "0x2",
          "logIndex": "0x6",
          "removed": false
        }
      ],
      "logsBloom": "0x00000000000000000000000000000000000000000000000000000000000000000000000800004000004000000000000000008000000000000000010000004000000000000000000000000040000000800000000000000000002100000000000000000000000000000000000000000000000000000000000080000000000000000000000000000000000000000000000000004000000000000000000000000000200000000000000000000002000000000000080000000000000000000000004200000000000000000001000000000000000000000008000000100000000000000008000000000000000000010000000000000000000000000000000000100010",
      "type": "0x2",
      "transactionHash": "0x322fb1b35dd0fcb511745203146caca6fc5d8dbea3dd4f5925b8466986fff430",
      "transactionIndex": "0x2",
      "blockHash": "0x48e94bb6be9f60abe0fb3ce211d09fc04bdbb66f52d5a7d21b951d022f84de57",
      "blockNumber": "0x187160a",
      "gasUsed": "0x28b96",
      "effectiveGasPrice": "0x9e1fe6018",
      "from": "0xe7a38d4d4d1ebc4e441f76a70ad7ce7a5d78531c",
      "to": "0x6edce65403992e310a62460808c4b910d972f10f",
      "contractAddress": null
    }
  ],
  "libraries": [],
  "pending": [],
  "returns": {},
  "timestamp": 1756209611132,
  "chain": 80002,
  "commit": "849ec6c"
}