{
  "transactions": [
    {
      "hash": null,
      "transactionType": "CALL",
      "contractName": null,
      "contractAddress": "0x6edce65403992e310a62460808c4b910d972f10f",
      "function": "setConfig(address,address,(uint32,uint32,bytes)[])",
      "arguments": [
        "0xB6F686949b9510233d00490181cfa0919acd73f1",
        "0x1d186C560281B8F1AF831957ED5047fD3AB902F9",
        "[(40245, 1, 0x00000000000000000000000000000000000000000000000000000000000027100000000000000000000000004cf1b3fa61465c2c907f82fc488b43223ba0cf93), (40245, 2, 0x0000000000000000000000000000000000000000000000000000000000000020000000000000000000000000000000000000000000000000000000000000000f000000000000000000000000000000000000000000000000000000000000000200000000000000000000000000000000000000000000000000000000000000ff000000000000000000000000000000000000000000000000000000000000000000000000000000000000000000000000000000000000000000000000000000c0000000000000000000000000000000000000000000000000000000000000012000000000000000000000000000000000000000000000000000000000000000020000000000000000000000003ed2211f49ce343d70cb8ded927ca6c4a619810100000000000000000000000055c175dd5b039331db251424538169d8495c18d10000000000000000000000000000000000000000000000000000000000000000)]"
      ],
      "transaction": {
        "from": "0xe7a38d4d4d1ebc4e441f76a70ad7ce7a5d78531c",
        "to": "0x6edce65403992e310a62460808c4b910d972f10f",
        "gas": "0x38400",
        "value": "0x0",
        "input": "0x6dbd9f90000000000000000000000000b6f686949b9510233d00490181cfa0919acd73f10000000000000000000000001d186c560281b8f1af831957ed5047fd3ab902f900000000000000000000000000000000000000000000000000000000000000600000000000000000000000000000000000000000000000000000000000000002000000000000000000000000000000000000000000000000000000000000004000000000000000000000000000000000000000000000000000000000000001000000000000000000000000000000000000000000000000000000000000009d3500000000000000000000000000000000000000000000000000000000000000010000000000000000000000000000000000000000000000000000000000000060000000000000000000000000000000000000000000000000000000000000004000000000000000000000000000000000000000000000000000000000000027100000000000000000000000004cf1b3fa61465c2c907f82fc488b43223ba0cf930000000000000000000000000000000000000000000000000000000000009d350000000000000000000000000000000000000000000000000000000000000002000000000000000000000000000000000000000000000000000000000000006000000000000000000000000000000000000000000000000000000000000001600000000000000000000000000000000000000000000000000000000000000020000000000000000000000000000000000000000000000000000000000000000f000000000000000000000000000000000000000000000000000000000000000200000000000000000000000000000000000000000000000000000000000000ff000000000000000000000000000000000000000000000000000000000000000000000000000000000000000000000000000000000000000000000000000000c0000000000000000000000000000000000000000000000000000000000000012000000000000000000000000000000000000000000000000000000000000000020000000000000000000000003ed2211f49ce343d70cb8ded927ca6c4a619810100000000000000000000000055c175dd5b039331db251424538169d8495c18d10000000000000000000000000000000000000000000000000000000000000000",
        "nonce": "0x4",
        "chainId": "0x13882"
      },
      "additionalContracts": [],
      "isFixedGasLimit": false
    }
  ],
  "receipts": [],
  "libraries": [],
  "pending": [],
  "returns": {},
  "timestamp": 1756209510119,
  "chain": 80002,
  "commit": "849ec6c"
}