{
  "transactions": [
    {
      "hash": "0x5b2e1a589272cf12481ba533f4f107a22167b52b580e2ce4172273d9b88ba4ac",
      "transactionType": "CALL",
      "contractName": null,
      "contractAddress": "0x6edce65403992e310a62460808c4b910d972f10f",
      "function": "setConfig(address,address,(uint32,uint32,bytes)[])",
      "arguments": [
        "0xB6F686949b9510233d00490181cfa0919acd73f1",
        "0x12523de19dc41c91F7d2093E0CFbB76b17012C8d",
        "[(40267, 2, 0x0000000000000000000000000000000000000000000000000000000000000020000000000000000000000000000000000000000000000000000000000000000f000000000000000000000000000000000000000000000000000000000000000200000000000000000000000000000000000000000000000000000000000000ff000000000000000000000000000000000000000000000000000000000000000000000000000000000000000000000000000000000000000000000000000000c000000000000000000000000000000000000000000000000000000000000001200000000000000000000000000000000000000000000000000000000000000002000000000000000000000000df04abb599c7b37dd5ffc0f8e94f6898120874ef000000000000000000000000e1a12515f9ab2764b887bf60b923ca494ebbb2d60000000000000000000000000000000000000000000000000000000000000000)]"
      ],
      "transaction": {
        "from": "0xe7a38d4d4d1ebc4e441f76a70ad7ce7a5d78531c",
        "to": "0x6edce65403992e310a62460808c4b910d972f10f",
        "gas": "0x2ed47",
        "value": "0x0",
        "input": "0x6dbd9f90000000000000000000000000b6f686949b9510233d00490181cfa0919acd73f100000000000000000000000012523de19dc41c91f7d2093e0cfbb76b17012c8d0000000000000000000000000000000000000000000000000000000000000060000000000000000000000000000000000000000000000000000000000000000100000000000000000000000000000000000000000000000000000000000000200000000000000000000000000000000000000000000000000000000000009d4b0000000000000000000000000000000000000000000000000000000000000002000000000000000000000000000000000000000000000000000000000000006000000000000000000000000000000000000000000000000000000000000001600000000000000000000000000000000000000000000000000000000000000020000000000000000000000000000000000000000000000000000000000000000f000000000000000000000000000000000000000000000000000000000000000200000000000000000000000000000000000000000000000000000000000000ff000000000000000000000000000000000000000000000000000000000000000000000000000000000000000000000000000000000000000000000000000000c000000000000000000000000000000000000000000000000000000000000001200000000000000000000000000000000000000000000000000000000000000002000000000000000000000000df04abb599c7b37dd5ffc0f8e94f6898120874ef000000000000000000000000e1a12515f9ab2764b887bf60b923ca494ebbb2d60000000000000000000000000000000000000000000000000000000000000000",
        "nonce": "0x5",
        "chainId": "0x14a34"
      },
      "additionalContracts": [],
      "isFixedGasLimit": false
    }
  ],
  "receipts": [
    {
      "status": "0x1",
      "cumulativeGasUsed": "0x44a12a",
      "logs": [
        {
          "address": "0x12523de19dc41c91f7d2093e0cfbb76b17012c8d",
          "topics": [
            "0x82118522aa536ac0e96cc5c689407ae42b89d592aa133890a01f1509842f5081"
          ],
          "data": "0x000000000000000000000000b6f686949b9510233d00490181cfa0919acd73f10000000000000000000000000000000000000000000000000000000000009d4b0000000000000000000000000000000000000000000000000000000000000060000000000000000000000000000000000000000000000000000000000000000f000000000000000000000000000000000000000000000000000000000000000200000000000000000000000000000000000000000000000000000000000000ff000000000000000000000000000000000000000000000000000000000000000000000000000000000000000000000000000000000000000000000000000000c000000000000000000000000000000000000000000000000000000000000001200000000000000000000000000000000000000000000000000000000000000002000000000000000000000000df04abb599c7b37dd5ffc0f8e94f6898120874ef000000000000000000000000e1a12515f9ab2764b887bf60b923ca494ebbb2d60000000000000000000000000000000000000000000000000000000000000000",
          "blockHash": "0xaaf27febfc9ffa404c7f8273fa2454cf01a3db95254bf9102e5641b507872780",
          "blockNumber": "0x1cd2bb3",
          "blockTimestamp": "0x68adb646",
          "transactionHash": "0x5b2e1a589272cf12481ba533f4f107a22167b52b580e2ce4172273d9b88ba4ac",
          "transactionIndex": "0x6",
          "logIndex": "0x7f",
          "removed": false
        }
      ],
      "logsBloom": "0x00000000000000000000000000000000000000000000000000000000000000000000000000000000000000000000000000000000000000000000000000000000000000000000000000000000000000000000000000000000002000000000000000000000000000000000000000000000000000000000000000000000000000000000000000100000000000000000000000000000000000000000000000000000000000000000000000000002000000004000000000000000000000000000000000000000000000000000000000000000000000000000000000000000000000000000000000000000000000000000000000000000000000000000000020000010",
      "type": "0x2",
      "transactionHash": "0x5b2e1a589272cf12481ba533f4f107a22167b52b580e2ce4172273d9b88ba4ac",
      "transactionIndex": "0x6",
      "blockHash": "0xaaf27febfc9ffa404c7f8273fa2454cf01a3db95254bf9102e5641b507872780",
      "blockNumber": "0x1cd2bb3",
      "gasUsed": "0x21e77",
      "effectiveGasPrice": "0x14dfeb",
      "from": "0xe7a38d4d4d1ebc4e441f76a70ad7ce7a5d78531c",
      "to": "0x6edce65403992e310a62460808c4b910d972f10f",
      "contractAddress": null,
      "l1BaseFeeScalar": "0x44d",
      "l1BlobBaseFee": "0x1",
      "l1BlobBaseFeeScalar": "0xa118b",
      "l1Fee": "0xa78a472a",
      "l1GasPrice": "0x2be1fb4b",
      "l1GasUsed": "0xd8b"
    }
  ],
  "libraries": [],
  "pending": [],
  "returns": {},
  "timestamp": 1756214855959,
  "chain": 84532,
  "commit": "f569da0"
}