{
  "transactions": [
    {
      "hash": "0x1966123aff7b4aecdd13141c5aab20abdaab913814d116513941a44cda9dc6f0",
      "transactionType": "CALL",
      "contractName": null,
      "contractAddress": "0x6edce65403992e310a62460808c4b910d972f10f",
      "function": "setSendLibrary(address,uint32,address)",
      "arguments": [
        "0xB6F686949b9510233d00490181cfa0919acd73f1",
        "40245",
        "0x1d186C560281B8F1AF831957ED5047fD3AB902F9"
      ],
      "transaction": {
        "from": "0xe7a38d4d4d1ebc4e441f76a70ad7ce7a5d78531c",
        "to": "0x6edce65403992e310a62460808c4b910d972f10f",
        "gas": "0x149cd",
        "value": "0x0",
        "input": "0x9535ff30000000000000000000000000b6f686949b9510233d00490181cfa0919acd73f10000000000000000000000000000000000000000000000000000000000009d350000000000000000000000001d186c560281b8f1af831957ed5047fd3ab902f9",
        "nonce": "0x2",
        "chainId": "0x13882"
      },
      "additionalContracts": [],
      "isFixedGasLimit": false
    },
    {
      "hash": "0xba3c020f7849b8e91f9e6acbf4a3d5c61f2ed912ccdcd90c13f8014be93b837b",
      "transactionType": "CALL",
      "contractName": null,
      "contractAddress": "0x6edce65403992e310a62460808c4b910d972f10f",
      "function": "setReceiveLibrary(address,uint32,address,uint256)",
      "arguments": [
        "0xB6F686949b9510233d00490181cfa0919acd73f1",
        "40267",
        "0x53fd4C4fBBd53F6bC58CaE6704b92dB1f360A648",
        "0"
      ],
      "transaction": {
        "from": "0xe7a38d4d4d1ebc4e441f76a70ad7ce7a5d78531c",
        "to": "0x6edce65403992e310a62460808c4b910d972f10f",
        "gas": "0x15b7f",
        "value": "0x0",
        "input": "0x6a14d715000000000000000000000000b6f686949b9510233d00490181cfa0919acd73f10000000000000000000000000000000000000000000000000000000000009d4b00000000000000000000000053fd4c4fbbd53f6bc58cae6704b92db1f360a6480000000000000000000000000000000000000000000000000000000000000000",
        "nonce": "0x3",
        "chainId": "0x13882"
      },
      "additionalContracts": [],
      "isFixedGasLimit": false
    }
  ],
  "receipts": [
    {
      "status": "0x1",
      "cumulativeGasUsed": "0x4660a",
      "logs": [
        {
          "address": "0x6edce65403992e310a62460808c4b910d972f10f",
          "topics": [
            "0x4cff966ebee29a156dcb34cf72c1d06231fb1777f6bdf6e8089819232f002b1c"
          ],
          "data": "0x000000000000000000000000b6f686949b9510233d00490181cfa0919acd73f10000000000000000000000000000000000000000000000000000000000009d350000000000000000000000001d186c560281b8f1af831957ed5047fd3ab902f9",
          "blockHash": "0x84974029438bfd15c689e4106ccd057f566b7e7e9d2ea9b1186586ddd3f4c1cb",
          "blockNumber": "0x18703f7",
          "transactionHash": "0x1966123aff7b4aecdd13141c5aab20abdaab913814d116513941a44cda9dc6f0",
          "transactionIndex": "0x2",
          "logIndex": "0x7",
          "removed": false
        },
        {
          "address": "0x0000000000000000000000000000000000001010",
          "topics": [
            "0x4dfe1bbbcf077ddc3e01291eea2d5c70c2b422b415d95645b9adcfd678cb1d63",
            "0x0000000000000000000000000000000000000000000000000000000000001010",
            "0x000000000000000000000000e7a38d4d4d1ebc4e441f76a70ad7ce7a5d78531c",
            "0x0000000000000000000000006ab3d36c46ecfb9b9c0bd51cb1c3da5a2c81cea6"
          ],
          "data": "0x00000000000000000000000000000000000000000000000000111cdd8d07739c00000000000000000000000000000000000000000000000009a566bbcc09d1b60000000000000000000000000000000000000000000008b12d6c32a8682f9933000000000000000000000000000000000000000000000000099449de3f025e1a0000000000000000000000000000000000000000000008b12d7d4f85f5370ccf",
          "blockHash": "0x84974029438bfd15c689e4106ccd057f566b7e7e9d2ea9b1186586ddd3f4c1cb",
          "blockNumber": "0x18703f7",
          "transactionHash": "0x1966123aff7b4aecdd13141c5aab20abdaab913814d116513941a44cda9dc6f0",
          "transactionIndex": "0x2",
          "logIndex": "0x8",
          "removed": false
        }
      ],
      "logsBloom": "0x00000000080000000000000000000000000200000000000000000000000000000000000800004000204000000000000000008000000000000000000001000000000000080000000000000000000000800000000000000000000100000000000000000000000000000200000000000000000000000000000080000000000000000000000000000020000000000000000000000000000000000000000000000000200000000000000000000000000000000000000000000000000000000000004000000000000000000001000000000000000000010000000000100000000000000040000000000000000000000000000000000000000000000000000000100000",
      "type": "0x2",
      "transactionHash": "0x1966123aff7b4aecdd13141c5aab20abdaab913814d116513941a44cda9dc6f0",
      "transactionIndex": "0x2",
      "blockHash": "0x84974029438bfd15c689e4106ccd057f566b7e7e9d2ea9b1186586ddd3f4c1cb",
      "blockNumber": "0x18703f7",
      "gasUsed": "0xe182",
      "effectiveGasPrice": "0x136d3a1f8d",
      "from": "0xe7a38d4d4d1ebc4e441f76a70ad7ce7a5d78531c",
      "to": "0x6edce65403992e310a62460808c4b910d972f10f",
      "contractAddress": null
    },
    {
      "status": "0x1",
      "cumulativeGasUsed": "0x5619f",
      "logs": [
        {
          "address": "0x6edce65403992e310a62460808c4b910d972f10f",
          "topics": [
            "0xcd6f92f5ac6185a5acfa02c92090746cec64d777269cbcd0ed031e396657a1c2"
          ],
          "data": "0x000000000000000000000000b6f686949b9510233d00490181cfa0919acd73f10000000000000000000000000000000000000000000000000000000000009d4b00000000000000000000000053fd4c4fbbd53f6bc58cae6704b92db1f360a648",
          "blockHash": "0x84974029438bfd15c689e4106ccd057f566b7e7e9d2ea9b1186586ddd3f4c1cb",
          "blockNumber": "0x18703f7",
          "transactionHash": "0xba3c020f7849b8e91f9e6acbf4a3d5c61f2ed912ccdcd90c13f8014be93b837b",
          "transactionIndex": "0x3",
          "logIndex": "0x9",
          "removed": false
        },
        {
          "address": "0x6edce65403992e310a62460808c4b910d972f10f",
          "topics": [
            "0x4e0a5bbfa0c11a64effb1ada324b5437a17272e1aed9320398715ef71bb20928"
          ],
          "data": "0x000000000000000000000000b6f686949b9510233d00490181cfa0919acd73f10000000000000000000000000000000000000000000000000000000000009d4b00000000000000000000000000000000000000000000000000000000000000000000000000000000000000000000000000000000000000000000000000000000",
          "blockHash": "0x84974029438bfd15c689e4106ccd057f566b7e7e9d2ea9b1186586ddd3f4c1cb",
          "blockNumber": "0x18703f7",
          "transactionHash": "0xba3c020f7849b8e91f9e6acbf4a3d5c61f2ed912ccdcd90c13f8014be93b837b",
          "transactionIndex": "0x3",
          "logIndex": "0xa",
          "removed": false
        },
        {
          "address": "0x0000000000000000000000000000000000001010",
          "topics": [
            "0x4dfe1bbbcf077ddc3e01291eea2d5c70c2b422b415d95645b9adcfd678cb1d63",
            "0x0000000000000000000000000000000000000000000000000000000000001010",
            "0x000000000000000000000000e7a38d4d4d1ebc4e441f76a70ad7ce7a5d78531c",
            "0x0000000000000000000000006ab3d36c46ecfb9b9c0bd51cb1c3da5a2c81cea6"
          ],
          "data": "0x000000000000000000000000000000000000000000000000001317668f85b266000000000000000000000000000000000000000000000000099449de3ecadf1c0000000000000000000000000000000000000000000008b12d7d4f85f5370ccf00000000000000000000000000000000000000000000000009813277af452cb60000000000000000000000000000000000000000000008b12d9066ec84bcbf35",
          "blockHash": "0x84974029438bfd15c689e4106ccd057f566b7e7e9d2ea9b1186586ddd3f4c1cb",
          "blockNumber": "0x18703f7",
          "transactionHash": "0xba3c020f7849b8e91f9e6acbf4a3d5c61f2ed912ccdcd90c13f8014be93b837b",
          "transactionIndex": "0x3",
          "logIndex": "0xb",
          "removed": false
        }
      ],
      "logsBloom": "0x00000000080000000000020800000000000000000000000000000000000000020400000800004000204000000000000000008000000000000000000000000000000000080000000000000000000000800000000000800000000100000000000000000000000000000200000000000000000000000000000080000000000000100000000000000020000000000000000000000000000000000000000000000000200000000000000000000000000000000000000000000000000000000000004000000000000000000001000000000000000000010000000000100000000000000000000000000000000000000000000000000000000000000000000000100000",
      "type": "0x2",
      "transactionHash": "0xba3c020f7849b8e91f9e6acbf4a3d5c61f2ed912ccdcd90c13f8014be93b837b",
      "transactionIndex": "0x3",
      "blockHash": "0x84974029438bfd15c689e4106ccd057f566b7e7e9d2ea9b1186586ddd3f4c1cb",
      "blockNumber": "0x18703f7",
      "gasUsed": "0xfb95",
      "effectiveGasPrice": "0x136d3a1f8d",
      "from": "0xe7a38d4d4d1ebc4e441f76a70ad7ce7a5d78531c",
      "to": "0x6edce65403992e310a62460808c4b910d972f10f",
      "contractAddress": null
    }
  ],
  "libraries": [],
  "pending": [],
  "returns": {},
  "timestamp": 1756198990428,
  "chain": 80002,
  "commit": "849ec6c"
}