{
  "transactions": [
    {
      "hash": "0x2caced480de69154769d847fb7529026319d788ce2f722cb8c3a4dbcc839500f",
      "transactionType": "CALL",
      "contractName": null,
      "contractAddress": "0xb6f686949b9510233d00490181cfa0919acd73f1",
      "function": "setPeer(uint32,bytes32)",
      "arguments": [
        "40245",
        "0x000000000000000000000000b6f686949b9510233d00490181cfa0919acd73f1"
      ],
      "transaction": {
        "from": "0xe7a38d4d4d1ebc4e441f76a70ad7ce7a5d78531c",
        "to": "0xb6f686949b9510233d00490181cfa0919acd73f1",
        "gas": "0x113c9",
        "value": "0x0",
        "input": "0x3400288b0000000000000000000000000000000000000000000000000000000000009d35000000000000000000000000b6f686949b9510233d00490181cfa0919acd73f1",
        "nonce": "0x6",
        "chainId": "0x14a34"
      },
      "additionalContracts": [],
      "isFixedGasLimit": false
    },
    {
      "hash": "0x722b59ffcdf3cf078733b0bc6cb0783255c77ada684e51d44e41d026b25a813f",
      "transactionType": "CALL",
      "contractName": null,
      "contractAddress": "0xb6f686949b9510233d00490181cfa0919acd73f1",
      "function": "setPeer(uint32,bytes32)",
      "arguments": [
        "40267",
        "0x000000000000000000000000b6f686949b9510233d00490181cfa0919acd73f1"
      ],
      "transaction": {
        "from": "0xe7a38d4d4d1ebc4e441f76a70ad7ce7a5d78531c",
        "to": "0xb6f686949b9510233d00490181cfa0919acd73f1",
        "gas": "0x113c9",
        "value": "0x0",
        "input": "0x3400288b0000000000000000000000000000000000000000000000000000000000009d4b000000000000000000000000b6f686949b9510233d00490181cfa0919acd73f1",
        "nonce": "0x7",
        "chainId": "0x14a34"
      },
      "additionalContracts": [],
      "isFixedGasLimit": false
    }
  ],
  "receipts": [
    {
      "status": "0x1",
      "cumulativeGasUsed": "0xf2c433",
      "logs": [
        {
          "address": "0xb6f686949b9510233d00490181cfa0919acd73f1",
          "topics": [
            "0x238399d427b947898edb290f5ff0f9109849b1c3ba196a42e35f00c50a54b98b"
          ],
          "data": "0x0000000000000000000000000000000000000000000000000000000000009d35000000000000000000000000b6f686949b9510233d00490181cfa0919acd73f1",
          "blockHash": "0x17fb15f957bbd44ae0a3e5b063c2503108da1abd59f47201758dbf86fe48281a",
          "blockNumber": "0x1cd2bdc",
          "blockTimestamp": "0x68adb698",
          "transactionHash": "0x2caced480de69154769d847fb7529026319d788ce2f722cb8c3a4dbcc839500f",
          "transactionIndex": "0x19",
          "logIndex": "0x169",
          "removed": false
        }
      ],
      "logsBloom": "0x00000000000000000000000000000000000000000000000000000000000000000000000000000000000000000000000000000000000000000800000000000000000000000000000000000000000000000000000000400000000000000000000000000000000000000000000000000000100000000000000000000000000000000000000000000000000000000000040000000000000000000000000000000000000000000000000000000000000000000000000000000000000002000000000000000000000000000000000000000000000000000000000000040000000000000000000000000000000000000000000000000000000000000000000000000000",
      "type": "0x2",
      "transactionHash": "0x2caced480de69154769d847fb7529026319d788ce2f722cb8c3a4dbcc839500f",
      "transactionIndex": "0x19",
      "blockHash": "0x17fb15f957bbd44ae0a3e5b063c2503108da1abd59f47201758dbf86fe48281a",
      "blockNumber": "0x1cd2bdc",
      "gasUsed": "0xbc93",
      "effectiveGasPrice": "0x13fa16",
      "from": "0xe7a38d4d4d1ebc4e441f76a70ad7ce7a5d78531c",
      "to": "0xb6f686949b9510233d00490181cfa0919acd73f1",
      "contractAddress": null,
      "l1BaseFeeScalar": "0x44d",
      "l1BlobBaseFee": "0x1",
      "l1BlobBaseFeeScalar": "0xa118b",
      "l1Fee": "0x4eddf4b7",
      "l1GasPrice": "0x2cc52565",
      "l1GasUsed": "0x640"
    },
    {
      "status": "0x1",
      "cumulativeGasUsed": "0xf380c6",
      "logs": [
        {
          "address": "0xb6f686949b9510233d00490181cfa0919acd73f1",
          "topics": [
            "0x238399d427b947898edb290f5ff0f9109849b1c3ba196a42e35f00c50a54b98b"
          ],
          "data": "0x0000000000000000000000000000000000000000000000000000000000009d4b000000000000000000000000b6f686949b9510233d00490181cfa0919acd73f1",
          "blockHash": "0x17fb15f957bbd44ae0a3e5b063c2503108da1abd59f47201758dbf86fe48281a",
          "blockNumber": "0x1cd2bdc",
          "blockTimestamp": "0x68adb698",
          "transactionHash": "0x722b59ffcdf3cf078733b0bc6cb0783255c77ada684e51d44e41d026b25a813f",
          "transactionIndex": "0x1a",
          "logIndex": "0x16a",
          "removed": false
        }
      ],
      "logsBloom": "0x00000000000000000000000000000000000000000000000000000000000000000000000000000000000000000000000000000000000000000800000000000000000000000000000000000000000000000000000000400000000000000000000000000000000000000000000000000000100000000000000000000000000000000000000000000000000000000000040000000000000000000000000000000000000000000000000000000000000000000000000000000000000002000000000000000000000000000000000000000000000000000000000000040000000000000000000000000000000000000000000000000000000000000000000000000000",
      "type": "0x2",
      "transactionHash": "0x722b59ffcdf3cf078733b0bc6cb0783255c77ada684e51d44e41d026b25a813f",
      "transactionIndex": "0x1a",
      "blockHash": "0x17fb15f957bbd44ae0a3e5b063c2503108da1abd59f47201758dbf86fe48281a",
      "blockNumber": "0x1cd2bdc",
      "gasUsed": "0xbc93",
      "effectiveGasPrice": "0x13fa16",
      "from": "0xe7a38d4d4d1ebc4e441f76a70ad7ce7a5d78531c",
      "to": "0xb6f686949b9510233d00490181cfa0919acd73f1",
      "contractAddress": null,
      "l1BaseFeeScalar": "0x44d",
      "l1BlobBaseFee": "0x1",
      "l1BlobBaseFeeScalar": "0xa118b",
      "l1Fee": "0x4eddf4b7",
      "l1GasPrice": "0x2cc52565",
      "l1GasUsed": "0x640"
    }
  ],
  "libraries": [],
  "pending": [],
  "returns": {},
  "timestamp": 1756214937519,
  "chain": 84532,
  "commit": "f569da0"
}